{
    "_format": "hh-sol-artifact-1",
    "contractName": "DocumentVerification",
    "sourceName": "contracts/DocumentVerification.sol",
    "abi": [
        {
            "inputs": [
                {
                    "internalType": "string",
                    "name": "",
                    "type": "string"
                }
            ],
            "name": "documentRegistry",
            "outputs": [
                {
                    "internalType": "string",
                    "name": "documentHash",
                    "type": "string"
                },
                {
                    "internalType": "address",
                    "name": "issuingAuthority",
                    "type": "address"
                },
                {
                    "internalType": "uint256",
                    "name": "timestamp",
                    "type": "uint256"
                }
            ],
            "stateMutability": "view",
            "type": "function"
        },
        {
            "inputs": [
                {
                    "internalType": "string",
                    "name": "uniqueID",
                    "type": "string"
                },
                {
                    "internalType": "string",
                    "name": "documentHash",
                    "type": "string"
                }
            ],
            "name": "storeDocument",
            "outputs": [],
            "stateMutability": "nonpayable",
            "type": "function"
        },
        {
            "inputs": [
                {
                    "internalType": "string",
                    "name": "uniqueID",
                    "type": "string"
                },
                {
                    "internalType": "string",
                    "name": "documentHash",
                    "type": "string"
                }
            ],
            "name": "verifyDocument",
            "outputs": [
                {
                    "internalType": "bool",
                    "name": "",
                    "type": "bool"
                }
            ],
            "stateMutability": "view",
            "type": "function"
        }
    ],
    "bytecode": "0x608060405234801561001057600080fd5b5061084d806100206000396000f3fe608060405234801561001057600080fd5b50600436106100415760003560e01c80639290095314610046578063a4ca650b14610078578063f9c71f87146100a8575b600080fd5b610060600480360381019061005b9190610405565b6100c4565b60405161006f93929190610611565b60405180910390f35b610092600480360381019061008d9190610446565b6101ac565b60405161009f91906105f6565b60405180910390f35b6100c260048036038101906100bd9190610446565b610236565b005b6000818051602081018201805184825260208301602085012081835280955050505050506000915090508060000180546100fd90610776565b80601f016020809104026020016040519081016040528092919081815260200182805461012990610776565b80156101765780601f1061014b57610100808354040283529160200191610176565b820191906000526020600020905b81548152906001019060200180831161015957829003601f168201915b5050505050908060010160009054906101000a900473ffffffffffffffffffffffffffffffffffffffff16908060020154905083565b6000816040516020016101bf91906105c8565b604051602081830303815290604052805190602001206000846040516101e591906105c8565b908152602001604051809103902060000160405160200161020691906105df565b60405160208183030381529060405280519060200120141561022b5760019050610230565b600090505b92915050565b60405180606001604052808281526020013373ffffffffffffffffffffffffffffffffffffffff1681526020014281525060008360405161027791906105c8565b908152602001604051809103902060008201518160000190805190602001906102a19291906102fa565b5060208201518160010160006101000a81548173ffffffffffffffffffffffffffffffffffffffff021916908373ffffffffffffffffffffffffffffffffffffffff160217905550604082015181600201559050505050565b82805461030690610776565b90600052602060002090601f016020900481019282610328576000855561036f565b82601f1061034157805160ff191683800117855561036f565b8280016001018555821561036f579182015b8281111561036e578251825591602001919060010190610353565b5b50905061037c9190610380565b5090565b5b80821115610399576000816000905550600101610381565b5090565b60006103b06103ab84610680565b61064f565b9050828152602081018484840111156103c857600080fd5b6103d3848285610734565b509392505050565b600082601f8301126103ec57600080fd5b81356103fc84826020860161039d565b91505092915050565b60006020828403121561041757600080fd5b600082013567ffffffffffffffff81111561043157600080fd5b61043d848285016103db565b91505092915050565b6000806040838503121561045957600080fd5b600083013567ffffffffffffffff81111561047357600080fd5b61047f858286016103db565b925050602083013567ffffffffffffffff81111561049c57600080fd5b6104a8858286016103db565b9150509250929050565b6104bb816106ec565b82525050565b6104ca816106fe565b82525050565b60006104db826106c5565b6104e581856106d0565b93506104f5818560208601610743565b6104fe81610806565b840191505092915050565b6000610514826106c5565b61051e81856106e1565b935061052e818560208601610743565b80840191505092915050565b6000815461054781610776565b61055181866106e1565b9450600182166000811461056c576001811461057d576105b0565b60ff198316865281860193506105b0565b610586856106b0565b60005b838110156105a857815481890152600182019150602081019050610589565b838801955050505b50505092915050565b6105c28161072a565b82525050565b60006105d48284610509565b915081905092915050565b60006105eb828461053a565b915081905092915050565b600060208201905061060b60008301846104c1565b92915050565b6000606082019050818103600083015261062b81866104d0565b905061063a60208301856104b2565b61064760408301846105b9565b949350505050565b6000604051905081810181811067ffffffffffffffff82111715610676576106756107d7565b5b8060405250919050565b600067ffffffffffffffff82111561069b5761069a6107d7565b5b601f19601f8301169050602081019050919050565b60008190508160005260206000209050919050565b600081519050919050565b600082825260208201905092915050565b600081905092915050565b60006106f78261070a565b9050919050565b60008115159050919050565b600073ffffffffffffffffffffffffffffffffffffffff82169050919050565b6000819050919050565b82818337600083830152505050565b60005b83811015610761578082015181840152602081019050610746565b83811115610770576000848401525b50505050565b6000600282049050600182168061078e57607f821691505b602082108114156107a2576107a16107a8565b5b50919050565b7f4e487b7100000000000000000000000000000000000000000000000000000000600052602260045260246000fd5b7f4e487b7100000000000000000000000000000000000000000000000000000000600052604160045260246000fd5b6000601f19601f830116905091905056fea2646970667358221220b70bb5aad0f075c4ad811f55ff4a32f7b3dea537e529916998775ea2a6b1c9f564736f6c63430008000033",
    "linkReferences": {},
    "deployedLinkReferences": {}
}