{
  "_format": "hh-sol-artifact-1",
  "contractName": "DocumentVerification",
  "sourceName": "contracts/DocumentVerification.sol",
  "abi": [
    {
      "inputs": [
        {
          "internalType": "string",
          "name": "",
          "type": "string"
        }
      ],
      "name": "documentRegistry",
      "outputs": [
        {
          "internalType": "string",
          "name": "documentHash",
          "type": "string"
        },
        {
          "internalType": "address",
          "name": "issuingAuthority",
          "type": "address"
        },
        {
          "internalType": "uint256",
          "name": "timestamp",
          "type": "uint256"
        }
      ],
      "stateMutability": "view",
      "type": "function"
    },
    {
      "inputs": [
        {
          "internalType": "string",
          "name": "uniqueID",
          "type": "string"
        },
        {
          "internalType": "string",
          "name": "documentHash",
          "type": "string"
        }
      ],
      "name": "storeDocument",
      "outputs": [],
      "stateMutability": "nonpayable",
      "type": "function"
    },
    {
      "inputs": [
        {
          "internalType": "string",
          "name": "documentHash",
          "type": "string"
        }
      ],
      "name": "verifyDocument",
      "outputs": [
        {
          "internalType": "bool",
          "name": "",
          "type": "bool"
        }
      ],
      "stateMutability": "view",
      "type": "function"
    }
  ],
  "bytecode": "0x6080604052348015600f57600080fd5b506109828061001f6000396000f3fe608060405234801561001057600080fd5b50600436106100415760003560e01c80639290095314610046578063beee5eb714610078578063f9c71f87146100a8575b600080fd5b610060600480360381019061005b919061040d565b6100c4565b60405161006f9392919061052f565b60405180910390f35b610092600480360381019061008d919061040d565b6101ac565b60405161009f9190610588565b60405180910390f35b6100c260048036038101906100bd91906105a3565b6101f6565b005b6000818051602081018201805184825260208301602085012081835280955050505050506000915090508060000180546100fd9061064a565b80601f01602080910402602001604051908101604052809291908181526020018280546101299061064a565b80156101765780601f1061014b57610100808354040283529160200191610176565b820191906000526020600020905b81548152906001019060200180831161015957829003601f168201915b5050505050908060010160009054906101000a900473ffffffffffffffffffffffffffffffffffffffff16908060020154905083565b6000806000836040516101bf91906106b7565b908152602001604051809103902060000180546101db9061064a565b905011156101ec57600190506101f1565b600090505b919050565b60405180606001604052808281526020013373ffffffffffffffffffffffffffffffffffffffff1681526020014281525060008260405161023791906106b7565b9081526020016040518091039020600082015181600001908161025a919061087a565b5060208201518160010160006101000a81548173ffffffffffffffffffffffffffffffffffffffff021916908373ffffffffffffffffffffffffffffffffffffffff160217905550604082015181600201559050505050565b6000604051905090565b600080fd5b600080fd5b600080fd5b600080fd5b6000601f19601f8301169050919050565b7f4e487b7100000000000000000000000000000000000000000000000000000000600052604160045260246000fd5b61031a826102d1565b810181811067ffffffffffffffff82111715610339576103386102e2565b5b80604052505050565b600061034c6102b3565b90506103588282610311565b919050565b600067ffffffffffffffff821115610378576103776102e2565b5b610381826102d1565b9050602081019050919050565b82818337600083830152505050565b60006103b06103ab8461035d565b610342565b9050828152602081018484840111156103cc576103cb6102cc565b5b6103d784828561038e565b509392505050565b600082601f8301126103f4576103f36102c7565b5b813561040484826020860161039d565b91505092915050565b600060208284031215610423576104226102bd565b5b600082013567ffffffffffffffff811115610441576104406102c2565b5b61044d848285016103df565b91505092915050565b600081519050919050565b600082825260208201905092915050565b60005b83811015610490578082015181840152602081019050610475565b60008484015250505050565b60006104a782610456565b6104b18185610461565b93506104c1818560208601610472565b6104ca816102d1565b840191505092915050565b600073ffffffffffffffffffffffffffffffffffffffff82169050919050565b6000610500826104d5565b9050919050565b610510816104f5565b82525050565b6000819050919050565b61052981610516565b82525050565b60006060820190508181036000830152610549818661049c565b90506105586020830185610507565b6105656040830184610520565b949350505050565b60008115159050919050565b6105828161056d565b82525050565b600060208201905061059d6000830184610579565b92915050565b600080604083850312156105ba576105b96102bd565b5b600083013567ffffffffffffffff8111156105d8576105d76102c2565b5b6105e4858286016103df565b925050602083013567ffffffffffffffff811115610605576106046102c2565b5b610611858286016103df565b9150509250929050565b7f4e487b7100000000000000000000000000000000000000000000000000000000600052602260045260246000fd5b6000600282049050600182168061066257607f821691505b6020821081036106755761067461061b565b5b50919050565b600081905092915050565b600061069182610456565b61069b818561067b565b93506106ab818560208601610472565b80840191505092915050565b60006106c38284610686565b915081905092915050565b60008190508160005260206000209050919050565b60006020601f8301049050919050565b600082821b905092915050565b6000600883026107307fffffffffffffffffffffffffffffffffffffffffffffffffffffffffffffffff826106f3565b61073a86836106f3565b95508019841693508086168417925050509392505050565b6000819050919050565b600061077761077261076d84610516565b610752565b610516565b9050919050565b6000819050919050565b6107918361075c565b6107a561079d8261077e565b848454610700565b825550505050565b600090565b6107ba6107ad565b6107c5818484610788565b505050565b5b818110156107e9576107de6000826107b2565b6001810190506107cb565b5050565b601f82111561082e576107ff816106ce565b610808846106e3565b81016020851015610817578190505b61082b610823856106e3565b8301826107ca565b50505b505050565b600082821c905092915050565b600061085160001984600802610833565b1980831691505092915050565b600061086a8383610840565b9150826002028217905092915050565b61088382610456565b67ffffffffffffffff81111561089c5761089b6102e2565b5b6108a6825461064a565b6108b18282856107ed565b600060209050601f8311600181146108e457600084156108d2578287015190505b6108dc858261085e565b865550610944565b601f1984166108f2866106ce565b60005b8281101561091a578489015182556001820191506020850194506020810190506108f5565b868310156109375784890151610933601f891682610840565b8355505b6001600288020188555050505b50505050505056fea264697066735822122083186723a46d078ca2a0ca358a82c1c4006a9d189a9f73cb4119277520649bb164736f6c634300081c0033",
  "linkReferences": {},
  "deployedLinkReferences": {}
}