{
  "_format": "hh-sol-artifact-1",
  "contractName": "DocumentVerification",
  "sourceName": "contracts/DocumentVerification.sol",
  "abi": [
    {
      "inputs": [
        {
          "internalType": "string",
          "name": "",
          "type": "string"
        }
      ],
      "name": "documentRegistry",
      "outputs": [
        {
          "internalType": "string",
          "name": "documentHash",
          "type": "string"
        },
        {
          "internalType": "address",
          "name": "issuingAuthority",
          "type": "address"
        },
        {
          "internalType": "uint256",
          "name": "timestamp",
          "type": "uint256"
        }
      ],
      "stateMutability": "view",
      "type": "function"
    },
    {
      "inputs": [
        {
          "internalType": "string",
          "name": "uniqueID",
          "type": "string"
        },
        {
          "internalType": "string",
          "name": "documentHash",
          "type": "string"
        }
      ],
      "name": "storeDocument",
      "outputs": [],
      "stateMutability": "nonpayable",
      "type": "function"
    },
    {
      "inputs": [
        {
          "internalType": "string",
          "name": "documentHash",
          "type": "string"
        }
      ],
      "name": "verifyDocument",
      "outputs": [
        {
          "internalType": "bool",
          "name": "",
          "type": "bool"
        }
      ],
      "stateMutability": "view",
      "type": "function"
    }
  ],
  "bytecode": "0x608060405234801561001057600080fd5b50610762806100206000396000f3fe608060405234801561001057600080fd5b50600436106100415760003560e01c80639290095314610046578063beee5eb714610078578063f9c71f87146100a8575b600080fd5b610060600480360381019061005b91906103c5565b6100c4565b60405161006f9392919061053b565b60405180910390f35b610092600480360381019061008d91906103c5565b6101ac565b60405161009f9190610520565b60405180910390f35b6100c260048036038101906100bd9190610406565b6101f6565b005b6000818051602081018201805184825260208301602085012081835280955050505050506000915090508060000180546100fd9061068b565b80601f01602080910402602001604051908101604052809291908181526020018280546101299061068b565b80156101765780601f1061014b57610100808354040283529160200191610176565b820191906000526020600020905b81548152906001019060200180831161015957829003601f168201915b5050505050908060010160009054906101000a900473ffffffffffffffffffffffffffffffffffffffff16908060020154905083565b6000806000836040516101bf9190610509565b908152602001604051809103902060000180546101db9061068b565b905011156101ec57600190506101f1565b600090505b919050565b60405180606001604052808281526020013373ffffffffffffffffffffffffffffffffffffffff168152602001428152506000826040516102379190610509565b908152602001604051809103902060008201518160000190805190602001906102619291906102ba565b5060208201518160010160006101000a81548173ffffffffffffffffffffffffffffffffffffffff021916908373ffffffffffffffffffffffffffffffffffffffff160217905550604082015181600201559050505050565b8280546102c69061068b565b90600052602060002090601f0160209004810192826102e8576000855561032f565b82601f1061030157805160ff191683800117855561032f565b8280016001018555821561032f579182015b8281111561032e578251825591602001919060010190610313565b5b50905061033c9190610340565b5090565b5b80821115610359576000816000905550600101610341565b5090565b600061037061036b846105aa565b610579565b90508281526020810184848401111561038857600080fd5b610393848285610649565b509392505050565b600082601f8301126103ac57600080fd5b81356103bc84826020860161035d565b91505092915050565b6000602082840312156103d757600080fd5b600082013567ffffffffffffffff8111156103f157600080fd5b6103fd8482850161039b565b91505092915050565b6000806040838503121561041957600080fd5b600083013567ffffffffffffffff81111561043357600080fd5b61043f8582860161039b565b925050602083013567ffffffffffffffff81111561045c57600080fd5b6104688582860161039b565b9150509250929050565b61047b81610601565b82525050565b61048a81610613565b82525050565b600061049b826105da565b6104a581856105e5565b93506104b5818560208601610658565b6104be8161071b565b840191505092915050565b60006104d4826105da565b6104de81856105f6565b93506104ee818560208601610658565b80840191505092915050565b6105038161063f565b82525050565b600061051582846104c9565b915081905092915050565b60006020820190506105356000830184610481565b92915050565b600060608201905081810360008301526105558186610490565b90506105646020830185610472565b61057160408301846104fa565b949350505050565b6000604051905081810181811067ffffffffffffffff821117156105a05761059f6106ec565b5b8060405250919050565b600067ffffffffffffffff8211156105c5576105c46106ec565b5b601f19601f8301169050602081019050919050565b600081519050919050565b600082825260208201905092915050565b600081905092915050565b600061060c8261061f565b9050919050565b60008115159050919050565b600073ffffffffffffffffffffffffffffffffffffffff82169050919050565b6000819050919050565b82818337600083830152505050565b60005b8381101561067657808201518184015260208101905061065b565b83811115610685576000848401525b50505050565b600060028204905060018216806106a357607f821691505b602082108114156106b7576106b66106bd565b5b50919050565b7f4e487b7100000000000000000000000000000000000000000000000000000000600052602260045260246000fd5b7f4e487b7100000000000000000000000000000000000000000000000000000000600052604160045260246000fd5b6000601f19601f830116905091905056fea264697066735822122093876e91b43d134530b768c7744228f64139a5482fc4b57b51ba688da4ebf82a64736f6c63430008000033",
  "linkReferences": {},
  "deployedLinkReferences": {}
}